{
  "transactions": [
    {
      "hash": "0xfe11d4913d7e315ea9dfaae9db949bc756f1cc4c3672ca7731ff55e41315f259",
      "transactionType": "CALL",
      "contractName": null,
      "contractAddress": "0xa896e4cd2df2107270a2c1000788aadedff0a1c8",
      "function": "makeContact()",
      "arguments": [],
      "transaction": {
        "from": "0x02a7abaaabe2053b49e7ca0a1a6eb33cea79299f",
        "to": "0xa896e4cd2df2107270a2c1000788aadedff0a1c8",
        "gas": "0x8dca",
        "value": "0x0",
        "input": "0x328b52cb",
        "nonce": "0xa6",
        "chainId": "0xaa36a7"
      },
      "additionalContracts": [],
      "isFixedGasLimit": false
    },
    {
      "hash": "0x036f0827ae8c2d1ff4781978425d6c436839d8ab692e6b0aaca6a83ec0729dd4",
      "transactionType": "CALL",
      "contractName": null,
      "contractAddress": "0xa896e4cd2df2107270a2c1000788aadedff0a1c8",
      "function": "retract()",
      "arguments": [],
      "transaction": {
        "from": "0x02a7abaaabe2053b49e7ca0a1a6eb33cea79299f",
        "to": "0xa896e4cd2df2107270a2c1000788aadedff0a1c8",
        "gas": "0x10504",
        "value": "0x0",
        "input": "0x47f57b32",
        "nonce": "0xa7",
        "chainId": "0xaa36a7"
      },
      "additionalContracts": [],
      "isFixedGasLimit": false
    },
    {
      "hash": "0x68b89f0cfc975705312677178bfe40c331882d06feb0d23078d7ed2b2ded9b15",
      "transactionType": "CALL",
      "contractName": null,
      "contractAddress": "0xa896e4cd2df2107270a2c1000788aadedff0a1c8",
      "function": "revise(uint256,bytes32)",
      "arguments": [
        "35707666377435648211887908874984608119992236509074197713628505308453184860938",
        "0x00000000000000000000000002a7abaaabe2053b49e7ca0a1a6eb33cea79299f"
      ],
      "transaction": {
        "from": "0x02a7abaaabe2053b49e7ca0a1a6eb33cea79299f",
        "to": "0xa896e4cd2df2107270a2c1000788aadedff0a1c8",
        "gas": "0x9ea5",
        "value": "0x0",
        "input": "0x0339f3004ef1d2ad89edf8c4d91132028e8195cdf30bb4b5053d4f8cd260341d4805f30a00000000000000000000000002a7abaaabe2053b49e7ca0a1a6eb33cea79299f",
        "nonce": "0xa8",
        "chainId": "0xaa36a7"
      },
      "additionalContracts": [],
      "isFixedGasLimit": false
    }
  ],
  "receipts": [
    {
      "status": "0x1",
      "cumulativeGasUsed": "0x108690c",
      "logs": [],
      "logsBloom": "0x00000000000000000000000000000000000000000000000000000000000000000000000000000000000000000000000000000000000000000000000000000000000000000000000000000000000000000000000000000000000000000000000000000000000000000000000000000000000000000000000000000000000000000000000000000000000000000000000000000000000000000000000000000000000000000000000000000000000000000000000000000000000000000000000000000000000000000000000000000000000000000000000000000000000000000000000000000000000000000000000000000000000000000000000000000000",
      "type": "0x2",
      "transactionHash": "0xfe11d4913d7e315ea9dfaae9db949bc756f1cc4c3672ca7731ff55e41315f259",
      "transactionIndex": "0x69",
      "blockHash": "0x16c1e5ff256c821e91f089249e489084b1feeed0e4c6ef7b74fad870d6b0a222",
      "blockNumber": "0x65bc65",
      "gasUsed": "0x66a8",
      "effectiveGasPrice": "0x3f55e3766",
      "from": "0x02a7abaaabe2053b49e7ca0a1a6eb33cea79299f",
      "to": "0xa896e4cd2df2107270a2c1000788aadedff0a1c8",
      "contractAddress": null
    },
    {
      "status": "0x1",
      "cumulativeGasUsed": "0x1091b85",
      "logs": [],
      "logsBloom": "0x00000000000000000000000000000000000000000000000000000000000000000000000000000000000000000000000000000000000000000000000000000000000000000000000000000000000000000000000000000000000000000000000000000000000000000000000000000000000000000000000000000000000000000000000000000000000000000000000000000000000000000000000000000000000000000000000000000000000000000000000000000000000000000000000000000000000000000000000000000000000000000000000000000000000000000000000000000000000000000000000000000000000000000000000000000000",
      "type": "0x2",
      "transactionHash": "0x036f0827ae8c2d1ff4781978425d6c436839d8ab692e6b0aaca6a83ec0729dd4",
      "transactionIndex": "0x6a",
      "blockHash": "0x16c1e5ff256c821e91f089249e489084b1feeed0e4c6ef7b74fad870d6b0a222",
      "blockNumber": "0x65bc65",
      "gasUsed": "0xb279",
      "effectiveGasPrice": "0x3f55e3766",
      "from": "0x02a7abaaabe2053b49e7ca0a1a6eb33cea79299f",
      "to": "0xa896e4cd2df2107270a2c1000788aadedff0a1c8",
      "contractAddress": null
    },
    {
      "status": "0x1",
      "cumulativeGasUsed": "0x1098e61",
      "logs": [],
      "logsBloom": "0x00000000000000000000000000000000000000000000000000000000000000000000000000000000000000000000000000000000000000000000000000000000000000000000000000000000000000000000000000000000000000000000000000000000000000000000000000000000000000000000000000000000000000000000000000000000000000000000000000000000000000000000000000000000000000000000000000000000000000000000000000000000000000000000000000000000000000000000000000000000000000000000000000000000000000000000000000000000000000000000000000000000000000000000000000000000",
      "type": "0x2",
      "transactionHash": "0x68b89f0cfc975705312677178bfe40c331882d06feb0d23078d7ed2b2ded9b15",
      "transactionIndex": "0x6b",
      "blockHash": "0x16c1e5ff256c821e91f089249e489084b1feeed0e4c6ef7b74fad870d6b0a222",
      "blockNumber": "0x65bc65",
      "gasUsed": "0x72dc",
      "effectiveGasPrice": "0x3f55e3766",
      "from": "0x02a7abaaabe2053b49e7ca0a1a6eb33cea79299f",
      "to": "0xa896e4cd2df2107270a2c1000788aadedff0a1c8",
      "contractAddress": null
    }
  ],
  "libraries": [],
  "pending": [],
  "returns": {},
  "timestamp": 1725983140,
  "chain": 11155111,
  "commit": "b020e18"
}