{
  "transactions": [
    {
      "hash": "0x1ca1ff31437d8ca906be9024f62187fe34cffffe257cbdef5ca88f00011c23af",
      "transactionType": "CALL",
      "contractName": null,
      "contractAddress": "0x4d88a1376a33b7a26edf42fa00cdb3247c3733c0",
      "function": "unlock(bytes16)",
      "arguments": [
        "0x656904573afdfa664b9c793e04cbad4f00000000000000000000000000000000"
      ],
      "transaction": {
        "from": "0x02a7abaaabe2053b49e7ca0a1a6eb33cea79299f",
        "to": "0x4d88a1376a33b7a26edf42fa00cdb3247c3733c0",
        "gas": "0x8940",
        "value": "0x0",
        "input": "0xe1afb08c656904573afdfa664b9c793e04cbad4f00000000000000000000000000000000",
        "nonce": "0x88",
        "chainId": "0xaa36a7"
      },
      "additionalContracts": [],
      "isFixedGasLimit": false
    }
  ],
  "receipts": [
    {
      "status": "0x1",
      "cumulativeGasUsed": "0xc6acf2",
      "logs": [],
      "logsBloom": "0x00000000000000000000000000000000000000000000000000000000000000000000000000000000000000000000000000000000000000000000000000000000000000000000000000000000000000000000000000000000000000000000000000000000000000000000000000000000000000000000000000000000000000000000000000000000000000000000000000000000000000000000000000000000000000000000000000000000000000000000000000000000000000000000000000000000000000000000000000000000000000000000000000000000000000000000000000000000000000000000000000000000000000000000000000000000",
      "type": "0x2",
      "transactionHash": "0x1ca1ff31437d8ca906be9024f62187fe34cffffe257cbdef5ca88f00011c23af",
      "transactionIndex": "0x68",
      "blockHash": "0xa54af3da9250d7aff83fc7b6c439e9f80a2f39ac6829c15b0623cb578ae25979",
      "blockNumber": "0x65798e",
      "gasUsed": "0x5dd9",
      "effectiveGasPrice": "0x102d76adf",
      "from": "0x02a7abaaabe2053b49e7ca0a1a6eb33cea79299f",
      "to": "0x4d88a1376a33b7a26edf42fa00cdb3247c3733c0",
      "contractAddress": null
    }
  ],
  "libraries": [],
  "pending": [],
  "returns": {},
  "timestamp": 1725727554,
  "chain": 11155111,
  "commit": "b020e18"
}