{
  "transactions": [
    {
      "hash": "0x7167354500bf42bf885ed599d1d200dddfe2fc4b23a8aeff5b27dc645d2ec86c",
      "transactionType": "CALL",
      "contractName": null,
      "contractAddress": "0xcee5ca37128abae8b67a33c814fcd6866c132512",
      "function": "unlock(bytes32)",
      "arguments": [
        "0x412076657279207374726f6e67207365637265742070617373776f7264203a29"
      ],
      "transaction": {
        "from": "0x02a7abaaabe2053b49e7ca0a1a6eb33cea79299f",
        "to": "0xcee5ca37128abae8b67a33c814fcd6866c132512",
        "gas": "0x8242",
        "value": "0x0",
        "input": "0xec9b5b3a412076657279207374726f6e67207365637265742070617373776f7264203a29",
        "nonce": "0x7a",
        "chainId": "0xaa36a7"
      },
      "additionalContracts": [],
      "isFixedGasLimit": false
    }
  ],
  "receipts": [
    {
      "status": "0x1",
      "cumulativeGasUsed": "0xb65207",
      "logs": [],
      "logsBloom": "0x00000000000000000000000000000000000000000000000000000000000000000000000000000000000000000000000000000000000000000000000000000000000000000000000000000000000000000000000000000000000000000000000000000000000000000000000000000000000000000000000000000000000000000000000000000000000000000000000000000000000000000000000000000000000000000000000000000000000000000000000000000000000000000000000000000000000000000000000000000000000000000000000000000000000000000000000000000000000000000000000000000000000000000000000000000000",
      "type": "0x2",
      "transactionHash": "0x7167354500bf42bf885ed599d1d200dddfe2fc4b23a8aeff5b27dc645d2ec86c",
      "transactionIndex": "0x8a",
      "blockHash": "0x889243ee3ebe9e0fca67cffaa8eb8d79c6625ce65d1cdc0290a9b00941788c07",
      "blockNumber": "0x656f88",
      "gasUsed": "0x5e4f",
      "effectiveGasPrice": "0x4dc3bdcc",
      "from": "0x02a7abaaabe2053b49e7ca0a1a6eb33cea79299f",
      "to": "0xcee5ca37128abae8b67a33c814fcd6866c132512",
      "contractAddress": null
    }
  ],
  "libraries": [],
  "pending": [],
  "returns": {},
  "timestamp": 1725690271,
  "chain": 11155111,
  "commit": "b020e18"
}