{
  "transactions": [
    {
      "hash": "0x545c3b3044d432f9d7fdb1abf908bb7928e8bffed696f715812f6f083b7d3831",
      "transactionType": "CREATE",
      "contractName": "DetectionBot",
      "contractAddress": "0x4f8384730223a008c82bc7c92bd3ed867f233203",
      "function": null,
      "arguments": null,
      "transaction": {
        "from": "0x02a7abaaabe2053b49e7ca0a1a6eb33cea79299f",
        "gas": "0x47097",
        "value": "0x0",
        "input": "0x60806040819052600080546001600160a01b03191673b0e9bedfbd80819b4c6888d9aa8d351d5defe4ac9081179091556306a226c560e51b82529063d444d8a090608490602090600481865afa158015605c573d6000803e3d6000fd5b505050506040513d601f19601f82011682018060405250810190607e919060ae565b600180546001600160a01b0319166001600160a01b039290921691909117905534801560a957600080fd5b5060dc565b60006020828403121560bf57600080fd5b81516001600160a01b038116811460d557600080fd5b9392505050565b610222806100eb6000396000f3fe608060405234801561001057600080fd5b506004361061002b5760003560e01c8063220ab6aa14610030575b600080fd5b61004361003e3660046100fb565b610045565b005b600080806100568460048188610180565b81019061006391906101aa565b60015492955090935091506001600160a01b03908116908216036100db5760405163087a43c160e01b81526001600160a01b0387166004820152339063087a43c190602401600060405180830381600087803b1580156100c257600080fd5b505af11580156100d6573d6000803e3d6000fd5b505050505b505050505050565b6001600160a01b03811681146100f857600080fd5b50565b60008060006040848603121561011057600080fd5b833561011b816100e3565b9250602084013567ffffffffffffffff8082111561013857600080fd5b818601915086601f83011261014c57600080fd5b81358181111561015b57600080fd5b87602082850101111561016d57600080fd5b6020830194508093505050509250925092565b6000808585111561019057600080fd5b8386111561019d57600080fd5b5050820193919092039150565b6000806000606084860312156101bf57600080fd5b83356101ca816100e3565b92506020840135915060408401356101e1816100e3565b80915050925092509256fea2646970667358221220ece869db275fe094d096322456d0fc9788a05ccde54223bb45162de95dd3ae1664736f6c63430008190033",
        "nonce": "0xdb",
        "chainId": "0xaa36a7"
      },
      "additionalContracts": [],
      "isFixedGasLimit": false
    },
    {
      "hash": null,
      "transactionType": "CALL",
      "contractName": null,
      "contractAddress": "0x1cf7aa41a7abddae9c0bc24268c0554cc0d13ad7",
      "function": "setDetectionBot(address)",
      "arguments": [
        "0x4F8384730223a008C82BC7C92BD3ed867f233203"
      ],
      "transaction": {
        "from": "0x02a7abaaabe2053b49e7ca0a1a6eb33cea79299f",
        "to": "0x1cf7aa41a7abddae9c0bc24268c0554cc0d13ad7",
        "gas": "0xfb10",
        "value": "0x0",
        "input": "0x9e927c680000000000000000000000004f8384730223a008c82bc7c92bd3ed867f233203",
        "nonce": "0xdc",
        "chainId": "0xaa36a7"
      },
      "additionalContracts": [],
      "isFixedGasLimit": false
    }
  ],
  "receipts": [],
  "libraries": [],
  "pending": [
    "0x545c3b3044d432f9d7fdb1abf908bb7928e8bffed696f715812f6f083b7d3831"
  ],
  "returns": {},
  "timestamp": 1727106827,
  "chain": 11155111,
  "commit": "b020e18"
}