{
  "transactions": [
    {
      "hash": "0x5a19f61ca084a6292ffc96126d016f94a875f356a4d2ab018a958fb6c5eda006",
      "transactionType": "CALL",
      "contractName": null,
      "contractAddress": "0x5326de1a1ba9b53512b8d60b344d8085b87acf17",
      "function": "transfer(address,uint256)",
      "arguments": [
        "0x0000000000000000000000000000000000000000",
        "21"
      ],
      "transaction": {
        "from": "0x02a7abaaabe2053b49e7ca0a1a6eb33cea79299f",
        "to": "0x5326de1a1ba9b53512b8d60b344d8085b87acf17",
        "gas": "0x107d6",
        "value": "0x0",
        "input": "0xa9059cbb00000000000000000000000000000000000000000000000000000000000000000000000000000000000000000000000000000000000000000000000000000015",
        "nonce": "0x71",
        "chainId": "0xaa36a7"
      },
      "additionalContracts": [],
      "isFixedGasLimit": false
    }
  ],
  "receipts": [
    {
      "status": "0x1",
      "cumulativeGasUsed": "0x10f50b7",
      "logs": [],
      "logsBloom": "0x00000000000000000000000000000000000000000000000000000000000000000000000000000000000000000000000000000000000000000000000000000000000000000000000000000000000000000000000000000000000000000000000000000000000000000000000000000000000000000000000000000000000000000000000000000000000000000000000000000000000000000000000000000000000000000000000000000000000000000000000000000000000000000000000000000000000000000000000000000000000000000000000000000000000000000000000000000000000000000000000000000000000000000000000000000000",
      "type": "0x2",
      "transactionHash": "0x5a19f61ca084a6292ffc96126d016f94a875f356a4d2ab018a958fb6c5eda006",
      "transactionIndex": "0x95",
      "blockHash": "0xfefbe13bc88d68b1d8c192750c4ddea531cfe9088e75841456dc7b6752a57e92",
      "blockNumber": "0x656f0f",
      "gasUsed": "0xbf04",
      "effectiveGasPrice": "0x49aeaa20",
      "from": "0x02a7abaaabe2053b49e7ca0a1a6eb33cea79299f",
      "to": "0x5326de1a1ba9b53512b8d60b344d8085b87acf17",
      "contractAddress": null
    }
  ],
  "libraries": [],
  "pending": [],
  "returns": {},
  "timestamp": 1725688506,
  "chain": 11155111,
  "commit": "b020e18"
}