{
  "transactions": [
    {
      "hash": "0x296edf1df39222c3638bae5701040c38a6dd5b83e83ee365750ed0ee2aa3e5a4",
      "transactionType": "CALL",
      "contractName": null,
      "contractAddress": "0x65faabce73ea03392692e23f6fe16726add0d881",
      "function": "authenticate(string)",
      "arguments": [
        "\"ethernaut0\""
      ],
      "transaction": {
        "from": "0x02a7abaaabe2053b49e7ca0a1a6eb33cea79299f",
        "to": "0x65faabce73ea03392692e23f6fe16726add0d881",
        "gas": "0xfe19",
        "value": "0x0",
        "input": "0xaa613b290000000000000000000000000000000000000000000000000000000000000020000000000000000000000000000000000000000000000000000000000000000a65746865726e6175743000000000000000000000000000000000000000000000",
        "nonce": "0x5e",
        "chainId": "0xaa36a7"
      },
      "additionalContracts": [],
      "isFixedGasLimit": false
    }
  ],
  "receipts": [
    {
      "status": "0x1",
      "cumulativeGasUsed": "0x167a69d",
      "logs": [],
      "logsBloom": "0x00000000000000000000000000000000000000000000000000000000000000000000000000000000000000000000000000000000000000000000000000000000000000000000000000000000000000000000000000000000000000000000000000000000000000000000000000000000000000000000000000000000000000000000000000000000000000000000000000000000000000000000000000000000000000000000000000000000000000000000000000000000000000000000000000000000000000000000000000000000000000000000000000000000000000000000000000000000000000000000000000000000000000000000000000000000",
      "type": "0x2",
      "transactionHash": "0x296edf1df39222c3638bae5701040c38a6dd5b83e83ee365750ed0ee2aa3e5a4",
      "transactionIndex": "0x81",
      "blockHash": "0xb4d3c901008ec7cd1a0f91df5d16fbb5298810fd44f4186665f2b280481a6edf",
      "blockNumber": "0x656df0",
      "gasUsed": "0xb7f7",
      "effectiveGasPrice": "0x197eeabb",
      "from": "0x02a7abaaabe2053b49e7ca0a1a6eb33cea79299f",
      "to": "0x65faabce73ea03392692e23f6fe16726add0d881",
      "contractAddress": null
    }
  ],
  "libraries": [],
  "pending": [],
  "returns": {},
  "timestamp": 1725684582,
  "chain": 11155111,
  "commit": "b020e18"
}